:100000000C9461000C9473000C9473000C947300B6
:100010000C9473000C9473000C9473000C94730094
:100020000C9473000C9473000C9473000C94730084
:100030000C9473000C9473000C9473000C94730074
:100040000C94D8000C9473000C9473000C947300FF
:100050000C9473000C9473000C9473000C94730054
:100060000C9473000C94730000000008000201005F
:100070000003040700000000000000000102040863
:100080001020408001020408102001020408102002
:10009000040404040404040402020202020203032E
:1000A00003030303000000002300260029000000D2
:1000B0000000250028002B0000000000240027007D
:1000C0002A0011241FBECFEFD8E0DEBFCDBF21E054
:1000D000A0E0B1E001C01D92A231B207E1F70E9499
:1000E0002B020C943A020C94000061E08DE00E9417
:1000F000920160E089E00C949201CF92DF92EF923E
:10010000FF920E9422016B017C0189E00E940102A2
:100110009093080180930701019751F480910601A3
:10012000882319F01092060103C081E08093060134
:1001300080910601882379F180910001909101015D
:10014000A0910201B0910301A7019601281B390B70
:100150004A0B5B0B283C31054105510520F1C0924B
:100160000001D0920101E0920201F092030180911E
:10017000040190910501892B39F481E090E090937E
:1001800005018093040104C010920501109204013E
:100190006091040101C060E08DE0FF90EF90DF907E
:1001A000CF900C94CB01FF90EF90DF90CF9008950B
:1001B0001F920F920FB60F9211242F933F938F939C
:1001C0009F93AF93BF9380910A0190910B01A091EF
:1001D0000C01B0910D013091090123E0230F2D375F
:1001E00020F40196A11DB11D05C026E8230F02963B
:1001F000A11DB11D2093090180930A0190930B0169
:10020000A0930C01B0930D0180910E0190910F010C
:10021000A0911001B09111010196A11DB11D809313
:100220000E0190930F01A0931001B0931101BF91A3
:10023000AF919F918F913F912F910F900FBE0F9093
:100240001F9018952FB7F89460910A0170910B01D7
:1002500080910C0190910D012FBF0895789484B581
:10026000826084BD84B5816084BD85B5826085BDB2
:1002700085B5816085BDEEE6F0E080818160808398
:10028000E1E8F0E01082808182608083808181607B
:100290008083E0E8F0E0808181608083E1EBF0E042
:1002A000808184608083E0EBF0E0808181608083E6
:1002B000EAE7F0E0808184608083808182608083CF
:1002C0008081816080838081806880831092C100FA
:1002D0000895833081F028F4813099F08230A1F0C4
:1002E00008958730A9F08830B9F08430D1F4809136
:1002F00080008F7D03C0809180008F778093800085
:10030000089584B58F7702C084B58F7D84BD08952C
:100310008091B0008F7703C08091B0008F7D809373
:10032000B0000895CF93DF9390E0FC01E458FF4FB5
:100330002491FC01E057FF4F8491882349F190E01C
:10034000880F991FFC01E854FF4FA591B491825585
:100350009F4FFC01C591D4919FB7611108C0F894DB
:100360008C91209582238C93888182230AC06230ED
:1003700051F4F8948C91322F309583238C9388819B
:10038000822B888304C0F8948C91822B8C939FBF1E
:10039000DF91CF9108950F931F93CF93DF931F9217
:1003A000CDB7DEB7282F30E0F901E859FF4F84912F
:1003B000F901E458FF4F1491F901E057FF4F049100
:1003C0000023C9F0882321F069830E9469016981B3
:1003D000E02FF0E0EE0FFF1FE255FF4FA591B49123
:1003E0009FB7F8948C91611103C01095812301C0CF
:1003F000812B8C939FBF0F90DF91CF911F910F9115
:100400000895CF93DF93282F30E0F901E859FF4F8B
:100410008491F901E458FF4FD491F901E057FF4F5F
:10042000C491CC2391F081110E946901EC2FF0E07E
:10043000EE0FFF1FEC55FF4FA591B4912C912D238A
:1004400081E090E021F480E002C080E090E0DF9164
:10045000CF91089508950E942E010E942A020E94C1
:100460007500C0E0D0E00E947D002097E1F30E947B
:080470000000F9CFF894FFCF62
:00000001FF
